S0120000416C61726D436C6F636B2E7372656339
S11300000C9430000C944D000C944D000C944D0055
S11300100C944D000C944D000C944D000C944D0028
S11300200C944D000C944D000C944D000C941C0247
S11300300C944D000C944D000C944D000C944D0008
S11300400C944D000C944D000C944D000C944D00F8
S11300500C944D006364696E6F70737578585B001F
S113006011241FBECFE5D8E0DEBFCDBF10E0A0E66F
S1130070B0E0E0EFF4E102C005900D92A83BB107B7
S1130080D9F720E0A8EBB0E001C01D92AE3DB20765
S1130090E1F70E942D040C94760A0C94000081B3BD
S11300A08F7781BB81B38F7B81BB81B38F7D81BB14
S11300B081B3877F81BB82B3806882BB82B3806453
S11300C082BB82B3806282BB82B3886082BB84B30A
S11300D0806284BB84B3806184BB84B3886084BB46
S11300E084B3846084BB0895E0E0FFEF95E072C0C0
S11300F085B3846085BB85B3886085BB85B3806127
S113010085BB85B3806285BB85B3692F70E021E030
S113011030E0092E02C0220F331F0A94E2F7209523
S1130120282325BB87E052C0843009F4815020B3D2
S1130130482F50E030E0082E02C0359527950A94E8
S1130140E2F720FD42C02FEF33EDA0E32150304011
S1130150A040E1F700C0000020B330E0082E02C048
S1130160359527950A94E2F720FD2EC0E1112DC0A4
S11301708330A9F425E030E0261B370B66E070E0FD
S1130180DB01A41BB50BAD01220F331F220F331F5C
S113019029553F4FD901A40FB51FFC911AC025E082
S11301A030E0261B370BE7E0F0E0DF01A41BB50BC2
S11301B0220F331F220F331F29553F4FF901EA0F36
S11301C0FB1FF081E1E001C0E0E08150833008F0E2
S11301D0ABCF9150923008F08BCFFF2301F1F13077
S11301E001F1F23001F1F33001F1F43001F1F530B5
S11301F001F1F63001F1F73001F1F83001F1F93095
S113020001F1FA3001F1FB3001F1FC3001F1FD3074
S113021001F1FE3001F1FF3001F180E0089587E340
S1130220089588E3089589E308958FE2089584E3A7
S1130230089585E3089586E308958AE2089581E3A5
S1130240089582E3089583E308958DE2089583E495
S1130250089580E308958DE308958BE208959BB398
S1130260977F9BBB98B3987E98BB282F22952F70BD
S1130270922F9870492F50E0440F551F2770422B3E
S113028098B3492B48BB9BB39B7F9BBB9BB39460A8
S11302909BBBEFE9FFE03197F1F700C000009BB38F
S11302A09B7F9BBB98B3987E98BB982F9870292FFF
S11302B030E0220F331F8770282B88B3282B28BBEC
S11302C08BB38B7F8BBB8BB384608BBB8FE99FE03D
S11302D00197F1F700C000008BB38B7F8BBB9FEFBE
S11302E0E3EFF1E09150E040F040E1F700C000009E
S11302F008959BB398609BBB98B3987E98BB282FB6
S113030022952F70922F9870492F50E0440F551F5B
S11303102770422B98B3492B48BB9BB39B7F9BBB55
S11303209BB394609BBBEFE9FFE03197F1F700C00A
S113033000009BB39B7F9BBB98B3987E98BB982F80
S11303409870292F30E0220F331F8770282B88B331
S1130350282B28BB8BB38B7F8BBB8BB384608BBB6D
S11303608FE99FE00197F1F700C000008BB38B7F0A
S11303708BBBEFE1FEE43197F1F700C00000089574
S11303800F931F93CF93DF938C01C0E0D0E003C0A1
S11303900E9479012196F801EC0FFD1F80818111E3
S11303A0F7CFDF91CF911F910F910895813039F0EC
S11303B058F0823031F0833031F060E005C0605C89
S11303C003C06C5E01C06C5A862F80680E942F01A6
S11303D0089581E00E942F0108958AB388608ABB42
S11303E08AB384608ABB87B3816087BB87B382602A
S11303F087BB87B3846087BB87B3806187BB8FE586
S11304009AEE0197F1F700C0000082E090E00E94AC
S11304102F0188E290E00E942F018CE090E00E947E
S11304202F0186E090E00E942F010E94E90180E8FC
S113043090E00E942F0108951F920F920FB60F9221
S113044011242F933F934F935F936F937F938F93D5
S11304509F93AF93BF93EF93FF93E091B900F09113
S1130460BA00309709F00995FF91EF91BF91AF91D0
S11304709F918F917F916F915F914F913F912F91B8
S11304800F900FBE0F901F9018959093BA00809311
S1130490B900089512BE89B7816089BF85E883BF1A
S11304A08FB780688FBF08958091C6008F93809125
S11304B0C5008F938091C8008F938091C7008F935C
S11304C08091CA008F938091C9008F9387E690E052
S11304D09F938F938CEC90E09F938F930E9458048A
S11304E060E080E00E94D6018CEC90E00E94C001A4
S11304F08091C3009091C4002DB73EB7265F3F4F53
S11305000FB6F8943EBF0FBE2DBF892B19F081E6BC
S113051090E002C084E690E00E94C00160E081E0C7
S11305200E94D60186E790E00E94C00160E082E06C
S11305300E94D6018091BE008F938091BD008F935D
S11305408091C0008F938091BF008F938091C200EF
S11305508F938091C1008F9387E690E09F938F9350
S113056085ED90E09F938F930E94580485ED90E071
S11305700E94C0018091BB009091BC002DB73EB792
S1130580265F3F4F0FB6F8943EBF0FBE2DBF892B99
S113059019F081E690E002C084E690E00E94C00178
S11305A00895809160008130C1F58091B8008F5F1B
S11305B08093B8008E3389F58091C5009091C60070
S11305C001969093C6008093C500CC9714F11092C5
S11305D0C6001092C5008091C7009091C800019692
S11305E09093C8008093C700CC979CF01092C800E9
S11305F01092C7008091C9009091CA00019690930F
S1130600CA008093C9000C9724F01092CA0010927B
S1130610C9000E9454021092B8000895CF93DF934A
S11306200E94E9018EE790E00E94C00160E081E051
S11306300E94D6018BE890E00E94C001D0E00E94A5
S11306407400C82F8F3FD9F3D1F380ED8C0F8A301B
S113065060F5D23011F0D53051F4ED2FF0E0E453D1
S1130660FF4F8AE380830E947901DF5F1EC0D83088
S113067099F460E082E00E94D60182E990E00E9451
S1130680C0018C2F90E09093C4008093C3008C2F02
S11306900E947901DF5F09C0ED2FF0E0E453FF4FC2
S11306A0C0838C2F0E947901DF5FCA3241F685EC4A
S11306B090E09F938F9387EC90E09F938F9389ECC6
S11306C090E09F938F9387E690E09F938F938CECB9
S11306D090E09F938F930E947A040E94E9010E9404
S11306E0E9010E9454028DB79EB70A960FB6F8949A
S11306F09EBF0FBE8DBFDF91CF910895CF93DF933F
S11307000E94E90189E990E00E94C00160E081E073
S11307100E94D60186E790E00E94C001D0E00E94CA
S11307207400C82F8F3FD9F3D1F380ED8C0F8A303A
S113073058F5D23011F0D53051F4ED2FF0E0EB52F2
S1130740FF4F8AE380830E947901DF5F1DC0D830A8
S113075091F460E082E00E94D60182E990E00E9478
S1130760C001ED2FF0E0EB52FF4FC0838C2F0E94AD
S11307707901DF5F09C0ED2FF0E0EB52FF4FC0833A
S11307808C2F0E947901DF5FCB3249F68DEB90E02C
S11307909F938F938FEB90E09F938F9381EC90E0E6
S11307A09F938F9387E690E09F938F9385ED90E0DE
S11307B09F938F930E947A040E94E90181E08093C1
S11307C0CB000E94E9010E9454028DB79EB70A969D
S11307D00FB6F8949EBF0FBE8DBFDF91CF910895E1
S11307E02091C5003091C6008091BD009091BE005B
S11307F02817390789F52091C7003091C8008091E6
S1130800BF009091C0002817390731F52091C90025
S11308103091CA008091C1009091C2002817390715
S1130820D9F42091C3003091C4008091BB00909111
S1130830BC002817390781F48091CB00813061F422
S113084087B3806887BB84B3806484BB88B38068C3
S113085088BB85B3806485BB08950E94ED010E9426
S11308604F000E944A0281ED92E00E9445020E94DC
S113087074008A3241F4109260000E940E0381E0F9
S11308808093600012C08B3241F4109260000E9489
S11308907E0381E08093600008C0803331F488B324
S11308A08F7788BB85B38F7B85BB0E94F003DFCF36
S11308B0AEE0B0E0EEE5F4E00C944D0A0D891E893B
S11308C086E08C831A8309838FEF9FE79E838D8351
S11308D0AE01475E5F4F6F89788DCE0101960E940D
S11308E09304EF81F885E00FF11F10822E96E4E067
S11308F00C94690AAEE0B0E0E0E8F4E00C944F0A2E
S113090085E08C838B899C899A838983AE01495EB7
S11309105F4F6D897E89CE0101960E9410082E9644
S1130920E2E00C946B0AABE0B0E0E9E9F4E00C948B
S11309303F0A6C017B018A01FC01178216828381C4
S113094081FFCCC1CE0101963C01F6019381F701F0
S113095093FD859193FF81917F01882309F4BAC1A6
S1130960853239F493FD859193FF81917F0185321E
S113097029F4B60190E00E948909E7CF912C212C3B
S1130980312CFFE1F315D8F08B3279F038F4803252
S113099079F08332A1F4232D20611DC08D3261F0E2
S11309A0803369F4232D216016C0832D8260382E94
S11309B0E32DE4603E2E2AC0F32DF8601DC037FC01
S11309C02DC020ED280F2A3040F08E32B9F436FCC9
S11309D081C1232D2064322E19C036FE06C08AE060
S11309E0989E200D1124922E11C0EAE02E9E200D17
S11309F01124222EF32DF0623F2E08C08C3621F4F0
S1130A00832D8068382E02C0883641F4F70193FDA7
S1130A10859193FF81917F018111B3CF982F9F7DA1
S1130A209554933028F40C5F1F4F9FE399830DC0B6
S1130A30833631F0833771F0833509F059C021C012
S1130A40F801808189830E5F1F4F88248394912C41
S1130A50530113C02801F2E04F0E511CF801A0808D
S1130A60B18036FE03C0692D70E002C06FEF7FEFE6
S1130A70C5010E9440094C018201F32DFF773F2EEE
S1130A8016C0280122E0420E511CF801A080B1805A
S1130A9036FE03C0692D70E002C06FEF7FEFC50121
S1130AA00E9435094C01F32DF0683F2E820133FC7E
S1130AB01BC0822D90E088169906B0F4B60180E23E
S1130AC090E00E9489092A94F4CFF50137FC8591BE
S1130AD037FE81915F01B60190E00E9489092110DF
S1130AE02A9421E0821A91088114910471F7E8C0D4
S1130AF0843611F0893641F5F80137FE07C060816C
S1130B007181828193810C5F1F4F08C06081718164
S1130B10072E000C880B990B0E5F1F4FF32DFF76E9
S1130B203F2E97FF09C090958095709561957F4FF2
S1130B308F4F9F4FF0683F2E2AE030E0A3010E94C0
S1130B40DE09882E861845C0853731F4232D2F7E83
S1130B50B22E2AE030E025C0932D997FB92E8F362E
S1130B60C1F018F4883579F0B5C0803719F08837AA
S1130B7021F0B0C0E92FE061BE2EB4FE0DC0FB2D04
S1130B80F460BF2E09C034FE0AC0292F2660B22E9D
S1130B9006C028E030E005C020E130E002C020E1DA
S1130BA032E0F801B7FE07C06081718182819381D0
S1130BB00C5F1F4F06C06081718180E090E00E5F82
S1130BC01F4FA3010E94DE09882E8618FB2DFF7794
S1130BD03F2E36FE0DC0232D2E7FA22E891458F4ED
S1130BE034FE0BC032FC09C0832D8E7EA82E05C0B6
S1130BF0B82CA32C03C0B82C01C0B92CA4FE0FC080
S1130C00FE01E80DF11D8081803321F49A2D997E37
S1130C10A92E09C0A2FE06C0B394B39404C08A2DC1
S1130C20867809F0B394A3FC11C0A0FE06C0B214E8
S1130C3088F4280C922C9B180EC0B21460F4B601F0
S1130C4080E290E00E948909B394F7CFB21418F4BB
S1130C502B1802C0982C212CA4FE10C0B60180E3EE
S1130C6090E00E948909A2FE17C0A1FC03C088E796
S1130C7090E002C088E590E0B6010CC08A2D867829
S1130C8059F0A1FE02C08BE201C080E2A7FC8DE214
S1130C90B60190E00E948909891438F4B60180E312
S1130CA090E00E9489099A94F7CF8A94F301E80DA1
S1130CB0F11D8081B60190E00E9489098110F5CF71
S1130CC0222009F442CEB60180E290E00E94890914
S1130CD02A94F6CFF6018681978102C08FEF9FEFA9
S1130CE02B96E2E10C945B0A20FD09C0FC0123FD74
S1130CF005C022FF02C07383628351834083089539
S1130D0044FD17C046FD17C0AB01BC01DA01FB016D
S1130D10AA0FBB1FEE1FFF1F1094D1F74A0F5B1FD2
S1130D206E1F7F1FCB01BA01660F771F881F991FA3
S1130D3009C033E001C034E0660F771F881F991F94
S1130D403150D1F7620F711D811D911D08950F93CC
S1130D501F93CF93DF938C01C8010E944B09EC01D0
S1130D6097FD08C00E942109892BB1F7B801CE0173
S1130D700E94C509CE01DF91CF911F910F91089573
S1130D808F929F92AF92BF92EF92FF920F931F9315
S1130D90CF93DF938C01D62F7A01B22E0E944B0998
S1130DA09C0133272B32310531F02D32310561F4AA
S1130DB08B2D8068B82ED15011F480E068C0C80132
S1130DC00E944B0997FDF9CFCB2DCD7F2B2D20739E
S1130DD009F58033F9F4AA24AA94AD0E09F443C0AA
S1130DE0C8010E944B0997FD3EC09C012F7D33270B
S1130DF02835310549F4C264D250A9F1C8010E94D2
S1130E004B0997FF07C02FC0B6FE02C0C26001C0E5
S1130E10C261DA2D812C912C540120ED280F283049
S1130E2080F0C4FF04C0B8010E94C50919C02A306B
S1130E3040F0C6FFF8CF2F7D3FEE320F363098F7E3
S1130E4027504C2FC501B4010E9480064B015C0160
S1130E50C260D15059F0C8010E944B0997FFDDCF01
S1130E60C1FD04C0AACF812C912C5401C7FF08C036
S1130E70B094A09490948094811C911CA11CB11CEA
S1130E802C2FB501A401C7010E94740681E0DF91F3
S1130E90CF911F910F91FF90EF90BF90AF909F90D3
S1130EA08F900895A0E2B0E0E8E5F7E00C94420AE0
S1130EB05C01962E7A01F9018E010F5F1F4F6801C4
S1130EC080E2D8011D928A95E9F7D50113968C909A
S1130ED080E090E0612C712C30E061E070E083FCF4
S1130EE0259183FE21918F01522E211103C080E0B0
S1130EF090E092C02E3511F4009751F1432F50E049
S1130F00481759073CF42D3559F12D3219F477203F
S1130F1009F103C0772009F46AC0452D469546952A
S1130F204695D601A40FB11D452D47708B0102C013
S1130F30000F111F4A95E2F7A8015C91452B4C93D1
S1130F40651459F0561410F45394E7CF5A94E5CF2E
S1130F5031E004C07724739401C0712C0196BFCF93
S1130F60772019F08E8180628E83311103C088242A
S1130F70839417C0F6019E012F5D3F4F80818095B9
S1130F8081932E173F07D1F7F2CFE114F10429F032
S1130F90D7018C93F70131967F019A94812C992083
S1130FA0F9F0C5010E944B0997FD18C0FC01FF2709
S1130FB023E0F595E7952A95E1F7EC0DFD1D2081D9
S1130FC030E0AC014770552702C0359527954A9506
S1130FD0E2F720FDDACFB5010E94C509811087CF61
S1130FE0E114F10411F0D7011C92C80115C0422F7D
S1130FF0469546954695D601A40FB11D422F4770DC
S11310008B0102C0000F111F4A95E2F7A8015C9101
S1131010452B4C93622EA2CFA096EFE00C945E0A6F
S1131020A0E0B0E0E6E1F8E00C94420A6C01EB01C8
S11310305A01FC0117821682512CF601E380FE014D
S1131040E3FC8591E3FE8191182FEF01882309F4D5
S1131050EEC090E00E942109892B21F0C6010E9474
S1131060A706EBCF153241F4FE01E3FC1591E3FE34
S11310701191EF01153281F4C6010E944B0997FDCD
S1131080D4C0412F50E09C01332724173507A9F21F
S1131090B6010E94C509CBC01A3239F4E3FC15919C
S11310A0E3FE1191EF0101E001C000E0F12C20ED1D
S11310B0210F2A3080F402606F2D70E080E090E010
S11310C040E20E948006F62EFE01E3FC1591E3FE49
S11310D01191EF01ECCF01FF03C0F11003C0A7C0D1
S11310E0FF24FA94183619F01C3651F010C0FE0192
S11310F0E3FC1591E3FE1191EF01183641F4086009
S11311000460FE01E3FC1591E3FE1191EF0111234C
S113111009F48DC0612F70E084E590E00E942A09F3
S1131120892B09F484C000FD07C0F50180809180FB
S1131130C50102965C0102C0812C912C1E3651F42B
S1131140F6014681578160E070E0202FC4010E94BF
S1131150740673CF1336A9F401FD02C0FF24F3947F
S1131160C6010E944B0997FD60C08114910429F0C7
S1131170F4018083C40101964C01FA94F110F0CF7C
S113118050C01B3559F49E01A4016F2DC6010E9465
S11311905207EC01892B09F044C03EC0C6010E94ED
S11311A0A70697FD42C01F3661F128F4143639F1C1
S11311B0193651F128C0133771F0153701F123C0E6
S11311C08114910429F0F4016082C40101964C0158
S11311D0FA94FF2071F0C6010E944B093C0197FD6F
S11311E008C00E942109892B59F3B601C3010E944A
S11311F0C50981149104A9F0F401108212C000629F
S113120003C0006101C00064202FA4016F2DC6013A
S11312100E94C006811105C0F6018381807329F400
S113122006C000FD0ACF539408CF552019F0852D30
S113123090E002C08FEF9FEFCDB7DEB7EFE00C94E4
S11312405E0A91110C943C0A803219F08950855041
S1131250C8F70895FC010590061621F00020D9F77F
S1131260C00108953197CF010895FC0105906150A4
S113127070400110D8F7809590958E0F9F1F0895A8
S1131280FC016150704001900110D8F78095909551
S11312908E0F9F1F0895CF93DF93EC012B8120FFC6
S11312A033C026FF0AC02F7B2B838E819F8101963A
S11312B09F838E838A8190E029C022FF0FC0E8813A
S11312C0F9818081082E000C990B009719F4206293
S11312D02B831AC03196F983E8830EC0EA85FB8517
S11312E0099597FF09C02B81019611F080E201C096
S11312F080E1822B8B8308C02E813F812F5F3F4F7B
S11313003F832E83992702C08FEF9FEFDF91CF9108
S113131008950F931F93CF93DF93FB01238121FD46
S113132003C08FEF9FEF2CC022FF16C04681578168
S1131330248135814217530744F4A081B1819D0172
S11313402F5F3F4F318320838C93268137812F5F1A
S11313503F4F3783268314C08B01EC01FB010084CB
S1131360F185E02D0995892BE1F6D80116968D912A
S11313709C911797019617969C938E931697CE017E
S1131380DF91CF911F910F910895FB01238120FFDD
S113139012C026FD10C08F3F3FEF930761F0828398
S11313A02F7D20642383268137812150310937839F
S11313B02683992708958FEF9FEF0895FA01AA27AE
S11313C0283051F1203181F1E8946F936E7F6E5F84
S11313D07F4F8F4F9F4FAF4FB1E03ED0B4E03CD032
S11313E0670F781F891F9A1FA11D680F791F8A1F15
S11313F0911DA11D6A0F711D811D911DA11D20D07C
S113140009F468943F912AE0269F11243019305D35
S11314103193DEF6CF010895462F4770405D419326
S1131420B3E00FD0C9F7F6CF462F4F70405D4A3373
S113143018F0495D31FD4052419302D0A9F7EACF3B
S1131440B4E0A6959795879577956795BA95C9F76A
S113145000976105710508959B01AC010A2E06945D
S11314605795479537952795BA95C9F7620F731F16
S1131470841F951FA01D08959927882708952F92EA
S11314803F924F925F926F927F928F929F92AF9210
S1131490BF92CF92DF92EF92FF920F931F93CF935D
S11314A0DF93CDB7DEB7CA1BDB0B0FB6F894DEBFF4
S11314B00FBECDBF09942A88398848885F846E841A
S11314C07D848C849B84AA84B984C884DF80EE8064
S11314D0FD800C811B81AA81B981CE0FD11D0FB66D
S11314E0F894DEBF0FBECDBFED010895F894FFCF91
S11314F001504D00414D00253032643A25303264AC
S11315003A2530326400416C61726D3A20004164C6
S11315106A7573742054696D653A0054696D653A4F
S1131520200069735F706D3A0041646A75737420BA
S1131530416C61726D3A000001020304050607085C
S10B1540090A0B0C0D0E0F004B
S9030000FC
