:100000000C942A000C943F000C943F000C943F0089
:100010000C943F000C943F000C943F000C943F0064
:100020000C943F000C943F000C943F000C943F0054
:100030000C943F000C943F000C943F000C943F0044
:100040000C943F000C943F000C943F000C943F0034
:100050000C943F0011241FBECFE5D8E0DEBFCDBF1A
:1000600010E0A0E6B0E0EAE9F3E002C005900D92EE
:10007000A037B107D9F70E94C2010C94CB010C94B0
:10008000000081B38F7781BB81B38F7B81BB81B34C
:100090008F7D81BB81B3877F81BB84B3806284BB4A
:1000A00084B3806184BB84B3886084BB84B3846080
:1000B00084BB82B3806882BB82B3806482BB82B31C
:1000C000806282BB82B3886082BB0895EFEF95E0C7
:1000D00061C085B38C6385BB85B3692F70E021E077
:1000E00030E0092E02C0220F331F0A94E2F7209558
:1000F000282325BB87E04AC0843009F4815020B30F
:10010000482F50E030E0082E02C0359527950A941C
:10011000E2F720FD3AC0AFE2B5E71197F1F700C072
:10012000000020B330E0082E02C0359527950A94D0
:10013000E2F720FD2AC08330A9F425E030E0261B39
:10014000370B66E070E0FB01E41BF50BAF01220FFB
:10015000331F220F331F205A3F4FF901E40FF51FC1
:10016000E08117C025E030E0261B370BE7E0F0E028
:10017000DF01A41BB50B220F331F220F331F205AA0
:100180003F4FF901EA0FFB1FE0818150833008F0F7
:10019000B3CF9150923008F09CCFEE2301F1E130C3
:1001A00001F1E23001F1E33001F1E43001F1E53039
:1001B00001F1E63001F1E73001F1E83001F1E93019
:1001C00001F1EA3001F1EB3001F1EC3001F1ED30F9
:1001D00001F1EE3001F1EF3001F180E0089587E3A5
:1001E000089588E3089589E308958FE2089584E3EC
:1001F000089585E3089586E308958AE2089581E3EA
:10020000089582E3089583E308958DE2089583E4D9
:10021000089580E308958DE308958BE2089598B3DF
:10022000987E98BB38B3282F22952F70922F987004
:10023000492F50E0440F551F2770422B432B48BBDA
:100240009BB3977F9BBB9BB394609BBBE9EFF0E0B4
:100250003197F1F700C000009BB39B7F9BBBE3EF9E
:10026000F1E03197F1F700C0000098B3987E98BB99
:1002700048B3982F9870292F30E0220F331F8770D2
:10028000282B242B28BB8BB384608BBB89EF90E099
:100290000197F1F700C000008BB38B7F8BBBE3EFBE
:1002A000F1E03197F1F700C00000089587B387614E
:1002B00087BB8AB38C608ABB85EA9EE00197F1F721
:1002C00000C0000082E090E00E940F0188E290E010
:1002D0000E940F018CE090E00E940F0186E090E008
:1002E0000E940F0181E090E00E940F0180E890E001
:1002F0000E940F01089598B3987E98BB38B3282FB9
:1003000022952F70922F9870492F50E0440F551F5F
:100310002770422B432B48BB9BB398609BBB9BB37E
:1003200094609BBBE9EFF0E03197F1F700C000006B
:100330009BB39B7F9BBBE7EAF1E63197F1F700C0E7
:10034000000098B3987E98BB48B3982F9870292FD7
:1003500030E0220F331F8770282B242B28BB8BB350
:1003600084608BBB89EF90E00197F1F700C000003B
:100370008BB38B7F8BBBE7EAF1E63197F1F700C0D7
:10038000000008950E9456010E9441000E946600EC
:0A0390000E947B01FBCFF894FFCF21
:10039A00000102030405060708090A0B0C0D0E0FDB
:00000001FF
